:020000040001F9
:10F00000C846002015F201001DF201001FF20100A8
:10F0100021F2010023F2010025F2010000000000AE
:10F0200000000000000000000000000027F20100C6
:10F0300029F20100000000002BF201002DF2010076
:10F04000A9F401002FF2010049F801002FF201009C
:10F050002FF201002FF20100A5F201002FF20100B2
:10F060002FF201002FF201002FF201002FF2010018
:10F070002FF201002FF201002FF201002FF2010008
:10F080002FF2010001F501002FF201002FF2010023
:10F0900025F501002FF2010029F501002FF20100F2
:10F0A0002FF201002FF201002FF201002FF20100D8
:10F0B0002FF201002FF2010000000000000000000C
:10F0C0002FF201002FF201002FF201002FF20100B8
:10F0D0002FF201002FF201002FF2010000000000CA
:10F0E0000000000000000000000000000000000020
:10F0F0000000000000000000000000000000000010
:10F1000000000000000000000000000000000000FF
:10F1100000000000000000000000000000000000EF
:10F1200000000000000000000000000000000000DF
:10F1300000000000000000000000000000000000CF
:10F1400000000000000000000000000000000000BF
:10F1500000000000000000000000000000000000AF
:10F16000000000000000000000000000000000009F
:10F17000000000000000000000000000000000008F
:10F18000000000000000000000000000000000007F
:10F19000000000000000000000000000000000006F
:10F1A000000000000000000000000000000000005F
:10F1B000000000000000000000000000000000004F
:10F1C000000000000000000000000000000000003F
:10F1D000000000000000000000000000000000002F
:10F1E000000000000000000000000000000000001F
:10F1F000000000000000000000000000000000000F
:10F20000DFF80CD000F03CF800480047050B020086
:10F21000C84600200648804706480047FEE7FEE74C
:10F22000FEE7FEE7FEE7FEE7FEE7FEE7FEE7FEE7B6
:10F230004DF5010001F2010040EA01039B0703D0F4
:10F2400009E008C9121F08C0042AFAD203E011F825
:10F25000013B00F8013B521EF9D27047D2B201E0E7
:10F2600000F8012B491EFBD270470022F6E710B5CB
:10F2700013460A4604461946FFF7F0FF204610BD24
:10F28000064C074D06E0E06840F0010394E80700F3
:10F2900098471034AC42F6D3FFF7B6FFE01E0200E9
:10F2A000001F02002DE9F04700268CB0DFF86091C6
:10F2B000B0464FF48075012437460696284601F083
:10F2C000C5FF38B1D9F80403204203D0284601F025
:10F2D000B3FF26432D1D64007F1CADB2082FEDD374
:10F2E0004FF4BE74204601F0B1FF48B1204601F052
:10F2F000A3FF46F0004606AA0121002001F088FF86
:10F30000444D16F0FF0F15D00127002437420DD0D1
:10F3100009EB8401D1F81005D1F81015C0F30420D1
:10F3200055F82420C1F3014102B190477F00641CCD
:10F33000082CEBD3002E67DA4FF0FF30CDE90880C0
:10F3400000263446281910F8507F90F9000027F065
:10F35000C008401C44D009A9404601F073FC58B3D2
:10F360004FEA9719404601F0D3F855F820701FB1C5
:10F37000B9F1030F03D00FE0B9F1030F30D108A8A2
:10F380004FEAD80208F00703815C4FF0010C0CFA39
:10F3900003FC41EA0C0181544FF0A04101EB8800CD
:10F3A000D0F8000706A9C0F3014A404601F04AFC24
:10F3B00018B1BAF1020F03D012E0BAF1030F0FD166
:10F3C000B9F1030F08D1BAF1020F1BD00221404658
:10F3D00001F00DFF761CF6B217B149464046B8471A
:10F3E000641C042CAED3002E0ED06A4601210020EE
:10F3F00001F00EFF06990098884205D00690089803
:10F4000009909DE70321E2E70CB0BDE8F08700001A
:10F4100000600040BC25002000F01F020121914047
:10F420004009800000F1E020C0F88012704700F031
:10F430001F02012191404009800000F1E020C0F846
:10F440008011704700F01F020121914040098000A7
:10F4500000F1E020C0F80011704700F01F02012108
:10F4600091404009800000F1E020C0F80011704791
:10F4700000F01F02012191404009800000F1E020CE
:10F48000C0F8001270474907090E002806DA00F09C
:10F490000F0000F1E02080F8141D704700F1E0201B
:10F4A00080F80014704700002DE9F0414FF4807798
:10F4B000384601F0CFFB0124104EA50748B138466D
:10F4C00001F0CFFB0120C5F808037470002001F0A3
:10F4D00027F84FF48277384601F0BCFB00280BD0A8
:10F4E000384601F0BEFB0220C5F80803B470BDE841
:10F4F000F041012001F014B8BDE8F081A8250020FA
:10F5000007480021C0F84011C0F84411C0F8481164
:10F51000C0F84C11C0F80011C0F8041102F0CAB9CB
:10F520000010014002F03EB9074810B5406830B104
:10F530008047002807D0BDE8104000F00DBBBDE8B3
:10F54000104001F0A9B910BD94210020F0B5AE48DB
:10F550000023021D01780125101D4FF0805406295B
:10F560000BD11678360708D10678C6F30316032E9A
:10F5700006D0042E04D0052E02D0062907D00EE0B6
:10F58000B4F82463A14FC6F304263E6002E0167867
:10F59000360704D10678C6F30316032E02D00629D7
:10F5A00004D00FE09B4F9A4E7E670EE01678360728
:10F5B00008D10678C6F30316032E06D0042E04D015
:10F5C000052E02D0062907D00EE0D4F84462924FEF
:10F5D000C6F342363E6002E01678360704D106785C
:10F5E000C6F30316032E02D0062906D011E08B4E77
:10F5F000376827F0807737600EE01678360708D135
:10F600000678C6F30316032E06D0042E04D0052E6A
:10F6100002D006290AD011E04FF08046C6F80C311E
:10F62000C6F810317C4E361F336002E0167836077C
:10F6300004D10678C6F30316032E02D0062905D09E
:10F640000CE0754F032664373E600AE016783607F3
:10F6500004D10678C6F30316032E02D006290DD076
:10F6600014E06F4F05263E606D4E783635606C4E67
:10F67000083633603F263F1D3E6002E016783607AD
:10F6800004D10678C6F30316052E02D0062957D0FA
:10F6900062E0644E3668644F3E60624E361D3668E6
:10F6A0003F1D3E605F4E083636683F1D3E605D4E32
:10F6B0000C3636683F1D3E605A4E103636683F1D88
:10F6C0003E60584E143636683F1D3E60554E183623
:10F6D0003668554F20373E60524E1C3636683F1D07
:10F6E0003E60504E203636683F1D3E604D4E2436FB
:10F6F00036683F1D3E604B4E283636683F1D3E60E3
:10F70000484E2C3636683F1D3E60464E30363668D1
:10F71000454F40373E60434E343636683F1D3E60AD
:10F72000404E383636683F1D3E603E4E3C363668A9
:10F730003F1D3E603B4E403636683F1D3E6002E056
:10F740001678360708D10678C6F30316032E06D0BE
:10F75000042E04D0052E02D0062907D019E0D4F8D3
:10F760005812324A01F04F01116002E01178090786
:10F770000FD10078C0F30310032803D0042801D070
:10F78000052806D12A480168C90702D06FF0010197
:10F79000016022487438016841F470010160BFF3D0
:10F7A0004F8FBFF36F8F4FF01021D1F80002002868
:10F7B00003DBD1F80402002822DA1E4A15601E4835
:10F7C0000468002CFCD01524C1F800420568002D07
:10F7D000FCD0C1F8044201680029FCD01360016824
:10F7E0000029FCD0BFF34F8F0C48F0380168134A52
:10F7F00001F4E06111430160BFF34F8F00BFFDE7EB
:10F8000010490F480860F0BDE00F00F0403501409E
:10F810000DF0ADBA00C007403C050040FCED00E033
:10F82000105600400404001020C50040E40E0040C3
:10F830000004004004E5014000E401400400FA0532
:10F840000090D003A82100200448017F044800292B
:10F85000024901D002F0EDB902F05CB91426002093
:10F860000020004000B58BB018220C496846FFF715
:10F87000E3FC0B4806900B494FF48070CDE907017B
:10F8800009900723084A06A9684600F051FA0028A3
:10F8900001D000F061F90BB000BD0000901E020025
:10F8A000B8220020B8230020151A020002E008C880
:10F8B000121F08C1002AFAD170477047002001E0EA
:10F8C00001C1121F002AFBD170470000012120282E
:10F8D00003DA81400548014003E0402802DA20387D
:10F8E000814009B10120704700207047FC06FFBC31
:10F8F0002DE9FC47002517880646158090F82D0055
:10F900001446894630B13A462146484600F004FD87
:10F91000050009D1B0784FF00C0A18B32088C8460A
:10F92000001DB84202D95046BDE8FC87684679DF21
:10F930000028F9D12088032108F800102088192117
:10F94000401C80B2208008F800102088401C80B243
:10F95000208000EB0801BDF8000002F0E2F92188E8
:10F9600008442080F0780222C8B1218896F903303B
:10F9700001F1030C4846BC45D5D8425421884FF0CC
:10F98000010C491C89B2218000F801C02188491C62
:10F9900089B2218009F801302088401C20807068DD
:10F9A000B8B1218890F9003001F1030C4846BC45FC
:10F9B000B9D8425421880A22491C89B22180425474
:10F9C0002188491C89B2218009F801302088401C17
:10F9D0002080308950B1CDE900474B4606220221F4
:10F9E00006F1080002F0EAF905009DD1308A50B115
:10F9F000CDE900474B460722032106F1100002F033
:10FA0000DDF9050090D1308B50B1CDE900474B4670
:10FA10001522142106F1180002F0D0F9050083D157
:10FA2000306A30B13B462246494600F0E3FD05000E
:10FA3000DBD1706A30B13B462246494601F082F87C
:10FA40000500D2D196F82C0038B13B4622464946F3
:10FA5000304601F0ABFD0500C7D1307838B13B46E8
:10FA600022464946304601F09FF80500BDD12846A0
:10FA70005AE70000134A0021535C0BB1012203E056
:10FA8000491C0629F8D300220F49012806D0022874
:10FA900009D003280CD0042812D10DE0487810B109
:10FAA0000AB101207047887810B10AB1022070476E
:10FAB000C87808B103207047087908B1042070475E
:10FAC0000020704749210020B824002030B5A7B09D
:10FAD0003C2101A8FFF7C9FB02208DF80400002497
:10FAE0008DF8064005208DF807003C2110A8FFF78F
:10FAF000BCFB0E4801251590ADF8505020211FA8E1
:10FB0000FFF7B3FB402023908DF87F50B420249062
:10FB1000074B1FAA10A9009401A800F04FFA002873
:10FB200001D000F019F827B030BD00002A210020D4
:10FB3000B1120200BFF34F8F05480168054A01F476
:10FB4000E06111430160BFF34F8F00BFFDE700008C
:10FB50000CED00E00400FA050EB500210091CDE99E
:10FB600001106A4644F20100FFF7E4FF0EBD10B534
:10FB70008268C368934203D000F0FEFD002010BDF0
:10FB8000052010BD29B112B1531E134203D0092024
:10FB900070470E2070470160838000218160C16042
:10FBA0000846704710B58268C3689A1A83889A42DB
:10FBB00003D800F0EBFD002010BD042010BD0000B4
:10FBC000074B5B6823B12AB120B10068037C1BB1ED
:10FBD0000820704707207047417442610020704739
:10FBE000742100202DE9F0470746984614468946BF
:10FBF00090074FF0000526D12CB301F0DDFB134E2A
:10FC000006F11000C6F80C800570457080F802906F
:10FC100044607560357075701420FFF7FDFB072197
:10FC20001420FFF730FC1420FFF70CFC0848076095
:10FC300007211120FFF727FC0548001F0068B0606E
:10FC40000020BDE8F0870720FBE7000064210020CA
:10FC5000081501402DE9FC47DFF87890D9F8043009
:10FC600073B368B3052902D20720BDE8FC87436956
:10FC700033B3437C012B25D000270446002588465A
:10FC800016468DF80050684600F0CAF801A802F048
:10FC90007DF8C8B1012101700F4944600968C0E9CD
:10FCA0000218C0E904769DF8040089F801009DF867
:10FCB000000000F0D9F81420FFF7DAFB2846D4E75B
:10FCC0000820D2E70F46D8E704259DF8000000F091
:10FCD000CBF8F3E774210020041501400649496878
:10FCE00039B130B1416921B100210174022101F023
:10FCF000BDBD0820704700007421002070B50A4E79
:10FD000001460A48B578FFF732FF04464DB100209E
:10FD1000B070711C0122C81D01F08EF808B1FFF708
:10FD20001BFF204670BD00008421002034260020E7
:10FD3000F0B5284E89B01F460D00044672603BD0D6
:10FD4000A888296882B22448FFF71CFF002834D114
:10FD5000A889A96882B220481030FFF713FF002855
:10FD60002BD120221D496846FFF766FA606906908C
:10FD7000207C00B101208DF814008DF81C70607C8F
:10FD800000B10E208DF81500E0680290A068039085
:10FD900020680190606800900E48114A694608305A
:10FDA00001F016F8002808D1B0702068401C04D07B
:10FDB0009DF81D0018B106E0072009B0F0BD054808
:10FDC000083001F091F803490122491CC81D01F0D7
:10FDD00033F8F2E78421002034260020C01E020000
:10FDE000751A020010B501460B48FFF7DBFE040050
:10FDF00010D10A4801F0C2F960B90849064808392B
:10FE0000FFF7B5FE30B9054901220839034801F072
:10FE10002FF90446204610BD442600208C210020E6
:10FE200030B5EFF3108172B60D4A9468012324B106
:10FE30000370002900D162B630BD93604FF0E0231B
:10FE4000D3F88051074C25401560C3F88041D3F8A2
:10FE5000844154605A17C3F8842100220270E8E7F5
:10FE600054260020FC06FFBC0B498A68002A11D0EA
:10FE700000280FD1EFF3108072B60B684FF0E0222C
:10FE8000C2F800314B68C2F8043100228A600028B1
:10FE900000D162B670470000542600202DE9F041E1
:10FEA000064608680C46411C4FF0A0474FF001057C
:10FEB00006D005FA00F1C7F80815206801F08DF9A1
:10FEC0006068411C02D0002101F076F930792049A8
:10FED00001EB4010A169007F00283068C0F82415AC
:10FEE00025D0607D227D31681043C1F86C05D4E9CE
:10FEF00000123068C0F80C15C0F8142524E0A06882
:10FF0000411C02D0002101F057F9E068411C05D0E6
:10FF10008540C7F80855E06801F05FF9D4E902129E
:10FF20003068C0F80825C0F81015BDE8F081607D84
:10FF3000217D32680843C2F86C05D4E900123068AC
:10FF4000C0F81425C0F80C15207D0128D7D0ECE7A7
:10FF500014260020F0B50C4693B01F210726ADF8FB
:10FF60000010ADF80410002750B1C17849070DD535
:10FF70006A4602A9FFF7BCFC002808D102AD02E0E6
:10FF80000025ADF800706CB1E07810B1304613B0C8
:10FF9000F0BD01AA0AA92046FFF7AAFC0028F6D165
:10FFA0000AAA02E00022ADF80470BDF80400C3B252
:10FFB000BDF80000C1B2284672DFE8E72DE9F0473E
:10FFC0001F46DDF8208013468946040042D0EBB37B
:10FFD000404D012000262870EE70202219463E4830
:10FFE000FFF72AF9C5E904784FF6FF702881AE6162
:10FFF0003948AE83AE773C212030FFF736F93648DA
:020000040002F8
:10000000217820300170A1788170E178C170617829
:1000100041703149D4E90423C1E90C23D4E9022316
:10002000C1E90A23D4E90623C1E90E23616AE1B1DB
:1000300000F13C0100F1480241628A60636A1B885A
:100040000B80616A436A8988998000E002E00021A0
:10005000436A07E00E20BDE8F087656AAD686D5C15
:100060005554491C9D888D42F7D8A16AD9B11A4AC6
:100070009432A2F10C018A608162A36A9B888B8012
:10008000A16A836A098819800021836A04E0A56A4D
:10009000AD686D5C5554491C9D888D42F7D894F825
:1000A0002C1080F82C10216A49B10A490A310162EA
:1000B000226A52884A80216A026A0988118061682E
:1000C00001B141604946BDE8F04703482030FFF7E1
:1000D00041BF000030210020B824002010B5018865
:1000E000144C102918D011291CD01B2919D1007AC1
:1000F000002816D1E0780521401CB0FBF1F201FB8D
:10010000120000BF00F018F800280AD06169002929
:1001100007D0BDE810400847C17B012901D1808884
:10012000208110BD00216171808821898842F8D129
:100130000120E7E7302100202DE9F0413D4C8046C9
:1001400086B0207848B184F8038004A800F028FB2A
:100150000498012628B1667067E0082006B0BDE863
:10016000F0810025A561344FA583A577787810B17B
:10017000E078012806D0B87858B1E078012801D09D
:10018000022806D1216919B126710820884700E0AC
:1001900025714046FFF76EFCE070216939B10328F4
:1001A00001D0042803D1387808B1607990B1A571E5
:1001B00000950295019503958DF800508DF8085033
:1001C0001C48E1781830052925D2DFE801F0300815
:1001D000111D2100E571A67107208847E8E7A67088
:1001E00001908DF80060ADF80C50ADF80A5014E0A5
:1001F0000221A17001908DF80060B889ADF80C0063
:100200003889ADF80A0008E0684601F023FA02E0F8
:10021000684601F043FAE07818B1684673DF0028B9
:100220009CD1216909B1A0788847002096E7A57084
:10023000F7E7000030210020B824002070B5054603
:1002400001461C220F48FEF7F7FF0F4C00262670D0
:10025000286830B1016861604068A060201D7ADFC5
:1002600002E00948001D7BDF00280AD14FF6FF702D
:1002700060806670BDE87040044A00210448FFF7C2
:100280009FBC70BD8C250020502100202D1D020038
:10029000A81E020070B51E4C068800231B49E28987
:1002A000102E15D01B4D112E1CD0122E29D0502EE1
:1002B00017D130F8061F914213D14189022910D17C
:1002C0000C3000F0F2F888B1BDE8704000F0FEB9E3
:1002D00084884C800469CC60406908614B70002AB6
:1002E000F2D070BD4FF6FF7048804B702868FFF762
:1002F000F5FC0028F5D0A1690029F2D0BDE87040D6
:1003000008478268CA60C0680861DDE750210020A4
:100310008C250020A81E02007CB5054608880C46E6
:100320000930904201D90C207CBD68466DDF002861
:10033000FAD121880820685420881B21401C80B2F3
:10034000208029542088401C80B220802844DDF879
:1003500001100160BDF8051081802088801D80B2E9
:1003600020809DF80010490800D0012129542088E0
:10037000401C208000207CBD10B50446FFF78AFF9A
:100380002146054800F03CF8204600F09FFF20463B
:10039000BDE81040FFF7A2BE2422002030B5174B65
:1003A0000D4604000FCB85B08DE80F0023D015B3A8
:1003B0004FF6FF70A0822868A0610020A07521463A
:1003C000684663DF002814D120788DF812000120E0
:1003D000ADF81000A21C04A9A0DF002809D129460D
:1003E000204601F020F8002803D12946204601F0DC
:1003F000B3FA05B030BD0E20FBE70000AC1E0200D2
:1004000010B5002822D0002920D00A88102A18D040
:10041000112A18D0502A19D104468A1DC888238A67
:100420001231984202D15389022B10D0A3889842EE
:100430000CD1A369002B09D052892046BDE8104099
:100440001847898801E04FF6FF71818210BD084688
:1004500000F02BF800B10120A07510BD07B584B0E5
:1004600068B1828AA2F57F43FF3B0AD0827D42B108
:10047000BDF81820142A06D9072007B000BD0E20A9
:10048000FBE70820F9E70022009201920292039212
:100490008289039106A90291ADF8002001218DF80F
:1004A0000210808A6946A6DFE7E7007800F00100C5
:1004B0007047000000B5134889B00023006807901A
:1004C0005022114907A801F035F908B1FFF744FBA4
:1004D0006A460121002001F017F908B1FFF73CFB43
:1004E0001720ADF81000684601F004F908B1FFF7D5
:1004F00033FB064801F0F4F8002801D0FFF72CFB8D
:1005000009B000BD8C1E02004022002079030200C9
:100510000249084490F9300070470000BC250020D3
:1005200070B5084C050009D010342168002907D0A7
:1005300008682060496828468847F6E70834F4E7E9
:1005400070BD0000A82500202DE9F05F2648416815
:10055000F1B3DFF898B00E688146DBF80040876899
:100560008078E11B21F07F45ED1CB0B9DFF8808079
:100570004FF48030C8F84403C8F804031120FEF794
:100580004BFF1120FEF75EFF4FF0010AC8F800A0F4
:100590002F2000F06FFB89F802A0B54200D235464B
:1005A000124BE8193C3320F07F401860DBF8001054
:1005B0005A46091B21F07F41001B20F07F40C91CD7
:1005C00081420FD9106818602F2000F053FB00E023
:1005D00004E0BDE8F05F1120FEF74ABFBDE8F05F20
:1005E00000F0EABEBDE8F09F642100200415014040
:1005F000001001402DE9F04117880646B81D144649
:100600000D46984202D90C20BDE8F08131880722BE
:1006100006290AD34FF4486C4FF6FF73614501D9A0
:10062000994202D17088062801D21046ECE7604555
:1006300001D99842F9D1994203D0984201D0814220
:10064000F3D80520E85520881221401C80B2208074
:1006500029542088401C80B220804119308801F044
:1006600060FB2188084480B220804119708801F025
:1006700058FB2188084420800020C5E7FFF76CBAAA
:1006800000B587B01C216846FEF7EFFD00204FF44F
:100690002031CDE900014FF47021029103218DF842
:1006A0000C10ADF80E008DF81000064805900648B5
:1006B00006906846FFF7C2FD002801D0FFF74CFA0C
:1006C00007B000BD9D1302007D060200F8B5134877
:1006D00000F05AF9114D0026114C0C3D30B1616902
:1006E000B9B101208DF80000684611E0287820B1EA
:1006F000616971B18DF80060F6E7687858B1A1685A
:10070000084800220068FFF7A5FA10B1A16901B1FD
:1007100088472E70F8BD6168F2E700005C21002078
:100720008C250020A81E0200092801D8303000E0E6
:100730003730C0B2704700000E4910B50A784C78C7
:100740000023A24212D0521CD2B20A70022A00D157
:100750000B70084A0B78183252F823200260886820
:10076000104420F07F408860012010BD036000200D
:1007700010BD000064210020826883881A4003684D
:100780009A5C0A708168491C81607047C2688388DE
:100790001A4003689954C168491CC1607047000041
:1007A00020B10349496E0160002070470320704763
:1007B000602600200EB500F027F801469DF80800DD
:1007C00020F00F00401C20F0F00010308DF80800E1
:1007D0000B2202A87CDF08B1FFF7BEF900200090D1
:1007E00001901021ADF80400ADF800104FF4C8706E
:1007F0003C21ADF80600ADF8021068467ADF00280B
:1008000001D0FFF7A9F90EBD1CB568466DDF184C85
:10081000462020704C2060709DF8030000F00F000F
:10082000FFF782FFA0709DF8020000F0F000E0707A
:100830000009FFF779FFE0709DF8020000F00F005B
:10084000FFF772FF20719DF8010000F0F000607169
:100850000009FFF769FF60719DF8010000F00F00CB
:10086000FFF762FFA0710020E07120461CBD000070
:10087000A422002010B5072000F0A7FC4FF0A044F0
:100880008020C4F80C051C2004F20C5400F09DFCE0
:100890004FF08050206010BDF8B51C4C2078002827
:1008A00032D0E068002658B10025607800282BD1AE
:1008B000684648DF052805D030B1FFF74DF90AE05A
:1008C0000125F2E7012606E0009800F055FA2169BB
:1008D00009B1009888479DB96078002814D16088D4
:1008E000ADF800006946A06861DF052803D020B19B
:1008F000FFF732F904E0012502E0D4E9020188475C
:10090000002ED2D0002DE6D0F8BD000094210020AA
:1009100070B50E460446007918494FF4A27501EBF4
:100920004010017F2068A1B14FF4887100F0ACFC49
:100930004FF49071206800F0A7FC4FF4927120688A
:1009400000F0A2FC2946206800F09EFC0C492068BB
:1009500009E04FF48E7100F086FC2946206800F013
:1009600082FC08492068C0F80413206800F025FACA
:100970003146BDE8704000F004BA000014260020A3
:100980001003020080000200054940880A88904256
:1009900004D34988884201D801207047002070475D
:1009A000542100202DE9F043264CA4F110092278AF
:1009B000D9F8048099F80350404694F801C0D9F85A
:1009C000086031E002EB42036168521C01EBC30195
:1009D000A378D2B2934200D100220B78022B02D02E
:1009E000032B21D11DE003464F68194603E0B942AD
:1009F00003D00B46C969B9B1F9E7A9B18B4205D15A
:100A0000C06918B9104E0125B56000260F68C96984
:100A1000D96149B10B683B440B6005E00174C069C2
:100A200000E000210028F9D19445CBD1C9E90106A5
:100A300089F80350404502D00120BDE8F083002032
:100A4000FBE7000074210020001001402DE9F04177
:100A50002A4F0446002607F11005D7F804803EE02F
:100A600002D02046E4691DE02878696800EB400266
:100A7000401CC0B201EBC2012870AA78904200D19C
:100A80002E700A784868012A2BD1027C4ABB8A68FA
:100A90004260CA6882600A69C26049698161F97806
:100AA00001B146604368BA68DFF854C0991A21F072
:100AB0007F41614502D28268114406E0D11A826802
:100AC00021F07F418A4202D9511A016000E006609C
:100AD0004660012186600174C66100F0A9FE002C09
:100AE000BED1287869788842BED17968414502D064
:100AF0000120BDE8F0810020FBE700006421002018
:100B0000FFFF7F0000230E4A05211846FFF76AF811
:100B100008B1FFF721F8FFF7ADFEFEF7A3FEFFF7E0
:100B2000C9FCFFF747FE00F085FDFEF7CFFFFFF79A
:100B3000A7FD0320FFF700FB08B1FFF70DF8FEE764
:100B4000AC21002070B5144682880E4605462088E8
:100B5000111D0144921C994201D8FE2A01D90C2092
:100B600070BD521C32542088FF21401C80B220806E
:100B700031542088401C80B220808119288801F0DF
:100B8000D0F82188084480B22080AA8842B1A968A0
:100B900041B13044FEF750FB2088A98808442080EA
:100BA000002070BD072070BDF8B50E4601781446D0
:100BB0000546012901D1687830B12088821C9A420B
:100BC0002DD8012902D006E00720F8BD697801443C
:100BD000891C994223D8181A801E87B2ADF800707C
:100BE0002188B01C084469467DDF0028EDD12878B3
:100BF000022805D1BDF80010B94201D809210AE048
:100C00000821012805D16878B84202D8ADF8000063
:100C100001E0ADF80070BDF80000FE2801D90C20FD
:100C2000F8BD2288401CB0542088401C80B220802F
:100C300031542088401C2080BDF8001008442080DA
:100C40000020F8BDC20800F007030120895C98402D
:100C50000840704700F180400068002800D0012063
:100C6000704708B500F180400021016000680090E5
:100C700008BD000000283ED01F49204A096800BF77
:100C800000BF00BF00BF00BF00BF00BF00BF914258
:100C90002FD000BF00BF00BF00BF00BF00BF00BF1C
:100CA00000BF00BF00BF00BF00BF00BF00BF00BF4C
:100CB00000BF00BF00BF00BF00BF00BF00BF00BF3C
:100CC00000BF00BF00BF00BF00BF00BF00BF00BF2C
:100CD00000BF00BF00BF00BF00BF00BF00BF00BF1C
:100CE00000BF00BF00BF00BF00BF00BF00BF00BF0C
:100CF00000BF0138C3D17047A82100200024F400B0
:100D000070B50F4C0025207808B1852516E000212C
:100D1000A16061602161E1604FF0E020D0F8000146
:100D2000012610F0010F03D10721002000F029F85F
:100D300000F032FD08B9034806602670284670BDF1
:100D4000A82500201805004038B500208DF80000C7
:100D50006846FFF765F8074C207808B9FFF7D0FF21
:100D6000E068401CE0600120A0709DF80000FFF7E3
:100D70007BF838BDA8250020002801D1FFF7D0BBA3
:100D800070474907090E002806DA00F00F0202F149
:100D9000E02282F8141D03E000F1E02282F8001442
:100DA00000F01F02012191404009800000F1E02085
:100DB000C0F88012C0F800117047000B40B27047B5
:100DC0000121B1EB507F01D1012070470020704715
:100DD0002DE9F04105460079164F904607EB401487
:100DE0000E46E07E10B10820BDE8F081707F2077CC
:100DF0002846FFF753F85FEA080060603169216018
:100E000003D0317F2846FFF783FD287907EB401098
:100E1000007F0028286801D0082100E00421C0F8E4
:100E200000150020E0752076A0750121E176A076FE
:100E3000DAE70000142600202DE9F041054600798C
:100E4000284E904606EB40140F46207F18B1084606
:100E5000FFF7B6FF80B1626800234FF404704FF4CF
:100E6000017172B12A7906EB4212127F002A2A68B8
:100E700005D0C2F8080304E01020BDE8F081C2F8F4
:100E80000813E27DB2B1227E7AB162685AB12A7942
:100E900006EB4212127F1AB12968C1F8040302E07E
:100EA0002868C0F804131120E7E72761012384F8BC
:100EB000188005E084F817800020E76060762076CF
:100EC0002879424606EB40103946007F0028284624
:100ED00003D0BDE8F04100F073B8BDE8F04100F088
:100EE0001BB800001426002070B504460079094D97
:100EF00005EB4010017F00290AD1807E002807D130
:100F0000204600F00AFB2179012005EB411188768B
:100F100070BD0000142600202DE9F05F0446007922
:100F2000264901EB4015A87E184302D1204600F067
:100F3000F4FA68680028206806D04FF40171C0F800
:100F400004130020BDE8F09F4FF4A276314600F074
:100F50008AF9B1464FF4927A4FF4847B5146206867
:100F600000F07CF906465946206800F077F9804683
:100F70004946206800F072F9074648EA0700304306
:100F8000ECD056EA070007D12946206800F032FA73
:100F9000E87D697E8842E1D80020E8750EB1032023
:100FA000D0E70FB10F20CDE7A97E012000292168ED
:100FB00001D00860C5E74860C3E7000014260020A0
:100FC0002DE9F05F894604464FF488759A469046AD
:100FD00000260068294600F057F94FF4A2773946F9
:100FE000206800F051F92068C0F83495C0F83885C1
:100FF0002068BAF1000F14D0D0F8001241F020019F
:10100000C0F800122179DFF8648008EB41104068D5
:1010100050B120684FF40471C0F804133046BDE8A5
:10102000F09F01210160EDE7AA46B9464FF4927B9B
:101030005146206800F023F907464946206800F031
:101040001EF905465946206800F019F9014647EA9D
:1010500005000843ECD02379002208EB4310C27549
:1010600001B10326002DD9D00F26D7E71426002082
:101070002DE9F047054600793F4E904606EB4014B7
:101080000F46207F18B10846FFF79AFE30B1284678
:1010900000F074F820B11120BDE8F0871020FBE7C4
:1010A00084F81680A7600027A78228794FF00108EE
:1010B00006EB40143E46207F0028286825D04FF4D8
:1010C0009079494600F0E0F84FF4AC7A5146286830
:1010D00000F0DAF82868A17DA268C0F84425C0F8BD
:1010E00048152868C0F808806068F0B94946286843
:1010F00000F0C5F880465146286800F0C0F858EA6C
:101100000001F3D058BBA7750FE04FF48E7A51461B
:1011100000F0A9F82868C0F808802146286800F087
:101120000BFC61684FF4807089B13046B4E75146DA
:10113000286800F093F810B9A08A4845F7D1A08A32
:10114000484505D02146286800F0F6FB00E08146BE
:10115000A08AA17D8842EAD3A08A484501D10F2602
:10116000D1E75146286800F079F80028F9D02868BE
:10117000C0F80C80C7E7000014260020007904495D
:1011800001EB4010807D002800D001207047000056
:101190001426002070B541EA4201DDE904564FF003
:1011A000A04441EA830141EA052104EB800041EAC1
:1011B0000641C0F8001770BD1CB500220B46009216
:1011C00011460192FFF7E6FF1CBD4FF0A04202EB73
:1011D00080000321C0F8001770471CB50021009162
:1011E0000B46012201911146FFF7D4FF1CBD4FF0C1
:1011F000A04202EB8000D0F8002722F44032C0F871
:101200000027D0F8002742EA0141C0F800177047D4
:1012100018B5084B6C4601441B68009306E000BFFC
:1012200054F82030D3F81035401C08C28142F7D85A
:1012300018BD0000BC1E0200034908B50844002187
:1012400001600068009008BD0060004002494058FD
:10125000012800D00020704700600040405800285E
:1012600000D00120704708B500224250405800903D
:1012700008BDD0F80403084000D001207047405852
:10128000002800D00120704708B500224250405885
:10129000009008BD70B516460D46002405E0285D97
:1012A000FEF7A0FD0028FAD1641CB442F7D370BD4C
:1012B0004FF0A04128B1032802D18020C1F80805D1
:1012C00070478020C1F80C057047000030B53249E6
:1012D000044600880D8889B03B282DD00DDC0228FB
:1012E0002ED0102815D0112815D0132816D1002380
:1012F0001A46852128467FDF17E0512824D052283E
:101300000ED0552844D0562808D1A088132176DF66
:101310000BE0A08801E04FF6FF70088009B030BDF7
:1013200000231A4619462846A9DF0028F6D009B03E
:10133000BDE83040FEF710BCA088132176DFF4E74B
:10134000A088002167DFF0E71022A11D04A8FDF7A7
:1013500073FF9DF810100029E0D09DF818000428B4
:1013600003D0062801D00528D8D102290ED00120AB
:101370008DF800004FF4C170ADF80400A0886946F4
:10138000A8DF0028CAD0FEF7E7FBC7E70220EFE797
:10139000A0881721ADDFC8E72821002000780028A9
:1013A00007D104483B21008876DF002801D0FEF7F2
:1013B000D3BB70472821002070B5012670044FF080
:1013C000E0210025C1F88001084C4010C4F8480312
:1013D000C4F8080366602F20FFF74CFCA660044C9D
:1013E0002F20A560FFF746FCA57070BD00100140DE
:1013F0006421002070B50546C87D0C4600284FF4D6
:10140000847128460AD0FFF72EFFD5F81805627EB2
:10141000E1688854607E401C607670BDFFF723FF52
:10142000D5F8180570BD30B58FB000240546079477
:101430009DF81C001C2120F00F00401C20F0F00043
:1014400010308DF81C009DF81D0020F00F00401C8E
:1014500020F0F00010308DF81D009DF81E0020F0E7
:101460000600801C8DF81E006846FDF7FEFE9DF804
:101470000000019440F010008DF8000007A8CDE9AD
:1014800004400394069428788DF83A000320ADF8C0
:1014900038000D949DF83400142120F00F00401CFA
:1014A00020F0F00010308DF834009DF8350020F069
:1014B0000F00401C20F0F00010308DF835009DF832
:1014C000360020F00600801C20F0180040F00100DB
:1014D0008DF8360008A8FDF7C8FE0EA808900DA8E4
:1014E00009900120ADF828001420ADF82A40ADF88D
:1014F0002C00688805F10C0308AA6946A2DF0FB02A
:1015000030BD1FB501238DF800308DF80810019211
:10151000D0E90012684690471FBD10B50446006828
:101520004FF49271FFF79FFE4FF484712068FFF72C
:101530009AFE20680121016010BD000010B504462C
:10154000FEF7C4F940B1002C09DA04F00F0000F1F5
:10155000E02090F8140D06E042F2010010BD04F105
:10156000E02090F800044109082914D299B101291A
:1015700011D004290FD005290DD00B480122816814
:1015800061B1610950F8213004F01F04A2401343F7
:1015900040F8213005E042F2020010BD2046FDF780
:1015A0005CFF002010BD0000542600202DE9F04112
:1015B0000746806A14468846C8B3002531E000BF5C
:1015C000B96A05EB450001EB8006B088801CFE2857
:1015D00002D90C20BDE8F0812288401C08F80200E6
:1015E00020881622401C80B2208008F80020208825
:1015F000401C80B2208000EB0801308800F091FB95
:101600002188084480B22080B28842B1B16871B1AB
:101610004044FDF711FE2088B188084420806D1CED
:10162000EDB297F82C00A842CAD80020D2E7FFE715
:101630000720CFE708B50548009069460448FEF743
:10164000ADFE002801D0FEF787FA08BD9512020012
:101650002422002010B50F490F4C0A8A42818A8A41
:101660008281097891B1617981B9E17971B1022101
:101670000172084904202031C8700648002120303A
:10168000FEF768FC002804D1052000E00320A070CC
:10169000002010BDB82400203021002010B50E49D4
:1016A0000E4C0A8B42818A8B82810A78042182B196
:1016B000627972B9E27962B1022202720648203080
:1016C000C1700021FEF746FC002804D10620A0705E
:1016D00000E0A170002010BDB824002030210020BF
:1016E00018B10349C860002070470E207047000001
:1016F000942100201CB5034901910091694660DFE7
:101700001CBD00002821002070B50E460546144679
:101710001C211046FDF7A9FD012020800021A161B8
:1017200021752672657205B1A072002070BDFEF7AA
:1017300001BA00002DE9F041074619B188074FF0C2
:10174000000402D00720BDE8F081114D4FF0E020E9
:101750000126A9606A806B60D0F8000110F0010FCB
:1017600003D034460020FDF762FE0A49384610DFF8
:10177000070005D014B10020FDF76FFE3846E2E700
:101780002E70FFF7E1FABDE8F0411620FFF7D6BE54
:10179000942100202F1702000148007870470000B4
:1017A000942100202DE9F84F204C00256846D4E90B
:1017B00001B6FEF7C1FF8046FFF7F4F80746A946D9
:1017C000B8F1000F25D00023009ACC46606819E0DC
:1017D00007680146974202D9BA1A026014E0C1F8BC
:1017E00000C0D1F80C80D21BC8693B448A46B8F1CE
:1017F000000F07D0F71827F07F47C1E90178CAF832
:101800001C500D460028E3D160602846FFF71EF902
:1018100004E02846FFF71AF900B917B15846FEF759
:1018200093FE84F80390BDE8F88F00006421002047
:101830000D4B10B5596831B102680C68A24204D84A
:10184000A21A0A60C161586010BD0B4603E00B4646
:10185000C969121B21B10C689442F8D3A41A0C6018
:101860000260C161D86110BD642100207CB50646CC
:1018700000240D468DF800406846FEF7D1FA01A815
:1018800000F084FA70B10570094946609DF80400C3
:1018900048709DF80000FEF7E7FA1420FDF7E8FD18
:1018A00020467CBD04249DF80000FEF7DDFAF7E732
:1018B000742100202DE9F0411D4D6C68002C35D0BD
:1018C0001C4800270068A968B846401A20F07F46E7
:1018D0002068B04215D82246361A0744E469107CC5
:1018E00068B182F81080EB6833B1D2E905019847FE
:1018F00028B1FEF731F902E0D2E905108847002C43
:10190000E6D129786878814206D1401CC0B268705F
:10191000022801D185F8018005486978183040F81F
:101920002170BDE8F0411420FDF7A2BDBDE8F081B3
:10193000642100200415014070B50C4605464FF4A3
:101940008E71FFF790FCA18AA068415CA08A401CC0
:10195000A082C5F81C1570BD30B58FB005461C219E
:101960006846FDF782FC00249DF80000019440F0D9
:101970000C008DF8000003940494059406942878D4
:101980008DF836000220ADF834000C949DF830003C
:10199000142120F00F00401C20F0F00010308DF8D2
:1019A00030009DF8310020F00F00401C20F0F000C6
:1019B00010308DF831009DF8320020F00600801CB8
:1019C00020F0180040F001008DF8320007A8FDF764
:1019D0004CFC0DA807900CA808900120ADF824003D
:1019E0001420ADF82640ADF8280068882B1D07AA02
:1019F0006946A2DF0FB030BD1FB500228DF8002070
:101A00008DF80810816801918275D0E9001268464E
:101A100090471FBD70B5017841B1012901D002295D
:101A200020D14068BDE87040FEF796B80F4C0E4DCF
:101A300020782844FEF762F92078401CC2B2A8182A
:101A4000227010F8010C0A2801D0142A0AD3064982
:101A50000748FEF703FD082802D008B1FEF77CF81E
:101A60000020207070BD0000902200202E21002058
:101A7000242200207CB50178244D81B301290BD0AC
:101A800002292BD18DF80010C068691C0190012239
:101A9000C81DFFF7D1F92EE0406801781C48FEF719
:101AA00081F81B4C012618B18DF80060019006E00A
:101AB000A068E168814205D000208DF800006968C7
:101AC00068468847A068E168081AA188884207D854
:101AD0000E490122491CC81DFFF7AEF97CBD01E08B
:101AE000AE70FBE70A4809491030FEF740F830B104
:101AF00003208DF80000696868468847EEE70349CF
:101B0000012201F10800FFF7B3FAE7E78421002082
:101B1000342600202DE9FF470C4605464FF400719E
:101B2000FFF7A7FB01274FF40178002618B34FF405
:101B3000927949462846FFF791FBE0B1494628468D
:101B4000FFF791FBC5F80883A07E00B96F60022003
:101B50008DF80000D5F88004C5F880040390E07D7E
:101B60008DF80800E0680190E6752676D4E9001249
:101B70006846904727E004212846FFF77AFB10B318
:101B80004FF484712846FFF769FBE0B121462846EF
:101B9000FFF730FCE07D617E884214D1207E38B1B1
:101BA000617EE268E0752069E0602676667607E08F
:101BB000A07E00B96F60C5F80883E675617EE268B3
:101BC0002046FFF79EFC4FF48E7841462846FFF7EB
:101BD00045FB88B1A08AA17D884204D221462846CF
:101BE000FFF7AAFE08E041462846FFF73CFBA17D2F
:101BF00011B12046FFF700FF4FF4A2784146284676
:101C0000FFF72CFB002812D041462846FFF72BFB9C
:101C1000A07E00B12F60E07D002808D0E675617ECF
:101C2000E26804B02046BDE8F047FFF76ABCBDE8B3
:101C3000FF872DE9FF410C464FF492770546394660
:101C4000FFF71DFB0026C0B139462846FFF71CFBF5
:101C500002208DF80000D5F88004C5F880040390B8
:101C6000D5F83C058DF80800E0680190E675267609
:101C7000D4E900126846904724E04FF4887739464B
:101C80002846FFF7FCFAE8B139462846FFF7FCFA88
:101C9000D5F83C05C1B2E07D884213D1207E60B109
:101CA000E268D5F8000220F02000C5F80002207E8E
:101CB000E0752069E060267601E0E675E26820467E
:101CC000FFF71FFC4FF4A27739462846FFF7D7FAF3
:101CD00068B139462846FFF7D7FAE07D38B1E67596
:101CE000D5F83C05E268C1B22046FFF70AFC4FF484
:101CF000907631462846FFF7C2FA00280FD03146C9
:101D00002846FFF7C1FAA07D002808D0D5F84C0579
:101D100004B0C1B22046BDE8F041FFF76DBEBDE89A
:101D2000FF810870000A48700220704738B51549D5
:101D30004888A0F57F42FF3A23D04A78124C521CC3
:101D4000D2B24A70237B93420AD3091D75DF002863
:101D500017D0A169002914D001B0BDE83040084770
:101D600000254D70217C29B13B2176DF10B1A1699E
:101D700001B188476169002903D08DF80050684699
:101D8000884738BD502100208C2500200A4A10B514
:101D900053789478591CC9B28C4200D10021147830
:101DA0008C4201D1002010BD0170506803EB43014B
:101DB00000EBC10010BD0000742100202DE9FC41A2
:101DC0001646DDE90854CDE900541F46804602223C
:101DD00000F00CF8002807D1CDE900543B46102252
:101DE0003146404600F002F8BDE8FC812DE9FC5F79
:101DF0000026DDE90C4B994692468E4680462788A0
:101E0000354630E0D8F80400002200EB8500694632
:101E10000068019001A865DF002830D19DF800001E
:101E200050451FD10EB1002100E002212288084454
:101E30001118594522D846B9521C90B2208009F891
:101E400000E02088401C20800126218801A801EBA9
:101E50000902694665DF002811D120889DF800102D
:101E6000084420806D1CB8F80000A842CADC56B1B6
:101E70002088C01B401E80B2FF2802D90C20BDE87C
:101E8000FC9F09F807000020F9E7000001000007A7
:101E90000600000008000000050000000900000026
:101EA0000000000000E0D7016C2500209ECADC2461
:101EB0000EE5A9E093F3A3B50000406E00000050CA
:101EC000FFFFFFFFFFFFFFFFFFFFFFFFFFFFFFFF22
:101ED00000000000000000000000D6010701000023
:101EE000001F02002821002084000000ACF801003F
:101EF000841F0200AC2100201C250000BCF801005A
:101F0000FFFF0100020000000000000000000000D0
:101F100000000000000000000000000000000000C1
:101F200000000000000000000000000000000000B1
:101F300000000000000000000000000000000000A1
:101F40000000000000000000000000000000000091
:101F50000000000000000000000000000000000081
:101F60000000000000200040000000000000000011
:101F70000000000000000000000000000000000061
:041F80000090D003FA
:040000050001F20103
:00000001FF
