:020000040001F9
:10F000007849002015F201001DF201001FF20100F5
:10F0100021F2010023F2010025F2010000000000AE
:10F0200000000000000000000000000027F20100C6
:10F0300029F20100000000002BF201002DF2010076
:10F040006DF601002FF20100D1FA01000DF7010069
:10F050002FF201002FF2010081F301002FF20100D5
:10F060002FF201002FF201002FF201002FF2010018
:10F070002FF201002FF201002FF201002FF2010008
:10F080002FF20100C5F601002FF201002FF201005E
:10F0900055F701002FF2010059F701002FF201008E
:10F0A0002FF201002FF201002FF201002FF20100D8
:10F0B0002FF201002FF2010000000000000000000C
:10F0C0002FF201002FF201002FF201002FF20100B8
:10F0D0002FF201002FF201002FF2010000000000CA
:10F0E0000000000000000000000000000000000020
:10F0F0000000000000000000000000000000000010
:10F1000000000000000000000000000000000000FF
:10F1100000000000000000000000000000000000EF
:10F1200000000000000000000000000000000000DF
:10F1300000000000000000000000000000000000CF
:10F1400000000000000000000000000000000000BF
:10F1500000000000000000000000000000000000AF
:10F16000000000000000000000000000000000009F
:10F17000000000000000000000000000000000008F
:10F18000000000000000000000000000000000007F
:10F19000000000000000000000000000000000006F
:10F1A000000000000000000000000000000000005F
:10F1B000000000000000000000000000000000004F
:10F1C000000000000000000000000000000000003F
:10F1D000000000000000000000000000000000002F
:10F1E000000000000000000000000000000000001F
:10F1F000000000000000000000000000000000000F
:10F20000DFF80CD000F03CF800480047490F02003E
:10F21000784900200648804706480047FEE7FEE799
:10F22000FEE7FEE7FEE7FEE7FEE7FEE7FEE7FEE7B6
:10F23000D5F7010001F2010040EA01039B0703D06A
:10F2400009E008C9121F08C0042AFAD203E011F825
:10F25000013B00F8013B521EF9D27047D2B201E0E7
:10F2600000F8012B491EFBD270470022F6E710B5CB
:10F2700013460A4604461946FFF7F0FF204610BD24
:10F28000064C074D06E0E06840F0010394E80700F3
:10F2900098471034AC42F6D3FFF7B6FF2829020096
:10F2A000482902002DE9F0412A4F00242A4A4C2027
:10F2B00038701378294805782146AB420DD0284B89
:10F2C00005785E5D05786D1C057005785B5DA7F1BE
:10F2D00013054C2B05D0622B2CD011700170BDE8AA
:10F2E000F0810178491C01701A481321133802F08B
:10F2F00041FC287800F00302C0F38201C1EB5010FA
:10F30000002814491348A1F1130103DDBDE8F041C1
:10F3100003F0F6B903F0F4F9385D00F0B7FE002809
:10F32000FAD1641CE4B2492CF6D3BDE8F041094897
:10F3300002F034BC07483146133802F01BFC06E0EB
:10F34000285D00F0A3FE0028FAD1641CE4B2B442A8
:10F35000F6D3C4E7E3230020282100202921002040
:10F360003C22002010B501F0F9F901F0F5FB02F0A4
:10F3700073FD00F001FDBDE8104001F0D5BA0000BA
:10F380002DE9F04700268CB0DFF86091B0464FF4CD
:10F390008075012437460696284602F01DFB38B1D9
:10F3A000D9F80403204203D0284602F00BFB264381
:10F3B0002D1D64007F1CADB2082FEDD34FF4BE7439
:10F3C000204602F009FB48B1204602F0FBFA46F065
:10F3D000004606AA0121002002F0E0FA444D16F092
:10F3E000FF0F15D00127002437420DD009EB84010F
:10F3F000D1F81005D1F81015C0F3042055F82420D9
:10F40000C1F3014102B190477F00641C082CEBD38B
:10F41000002E67DA4FF0FF30CDE908800026344631
:10F42000281910F8507F90F9000027F0C008401C00
:10F4300044D009A9404601F02DFE58B34FEA971970
:10F44000404601F0B9F955F820701FB1B9F1030F2A
:10F4500003D00FE0B9F1030F30D108A84FEAD8026A
:10F4600008F00703815C4FF0010C0CFA03FC41EA41
:10F470000C0181544FF0A04101EB8800D0F8000747
:10F4800006A9C0F3014A404601F004FE18B1BAF1E2
:10F49000020F03D012E0BAF1030F0FD1B9F1030F3D
:10F4A00008D1BAF1020F1BD00221404602F05EFAE9
:10F4B000761CF6B217B149464046B847641C042C86
:10F4C000AED3002E0ED06A460121002002F066FA6B
:10F4D00006990098884205D00690089809909DE703
:10F4E0000321E2E70CB0BDE8F087000000600040B7
:10F4F0004828002008B5064A0121064800F0B4FC5F
:10F500000090002803D0BDE8084000F079BC08BD99
:10F5100075F50100C028020070B513480178134C3E
:10F520000026607841B1002805D0114800F026F986
:10F5300002F0E8FD667070BD012540B12079002819
:10F54000F9D02671A07838B1A670094807E002F01A
:10F55000CFFD6570A57070BD0548A5700930BDE888
:10F56000704000F00BB900002A2100203821002053
:10F570001D25002001490120087170473821002015
:10F580001FB5134AD2E902015269CDE900014FF0DB
:10F590008040CDE90202FF208DF803008DF80200C3
:10F5A0000D218DF801108DF8000001208DF80C0060
:10F5B000084A6946084801F0C7FE08B100F020FC7F
:10F5C00002F0EEFB01F028FB01F064FB1FBD000020
:10F5D000C0280200312002004021002000F01F025C
:10F5E000012191404009800000F1E020C0F8801224
:10F5F000704700F01F02012191404009800000F196
:10F60000E020C0F88011704700F01F0201219140F6
:10F610004009800000F1E020C0F80011704700F0C0
:10F620001F02012191404009800000F1E020C0F854
:10F630000011704700F01F02012191404009800035
:10F6400000F1E020C0F8001270474907090E0028B9
:10F6500006DA00F00F0000F1E02080F8141D70477A
:10F6600000F1E02080F80014704700002DE9F0411F
:10F670004FF48077384601F015FD0124104EA507A0
:10F6800048B1384601F015FD0120C5F80803747033
:10F69000002001F099F84FF48277384601F002FD1E
:10F6A00000280BD0384601F004FD0220C5F80803FD
:10F6B000B470BDE8F041012001F086B8BDE8F081EA
:10F6C0003428002007480021C0F84011C0F8441138
:10F6D000C0F84811C0F84C11C0F80011C0F804116E
:10F6E00002F09EBD0010014008B5064A0021064800
:10F6F00000F0BAFB0090002803D0BDE8084000F0FD
:10F700007FBB08BD4DFB0100BC280200F8B51048C6
:10F710000E4D04464FF48C7102F066F9002813D0A8
:10F720000026C4F81861D4F818010090A87E2C4671
:10F73000FF2801D002F02BF966762671216801B00E
:10F74000201DBDE8F0400847F8BD0000C02800209B
:10F750000030004002F0DCBC074810B5406830B112
:10F760008047002807D0BDE8104000F049BBBDE845
:10F77000104001F0B3BA10BDAC2100202DE9F041DA
:10F78000124E054600244FF03C0800BF04EB44072E
:10F79000781901F01DF908EB870200218F18435CEE
:10F7A000491CC9B2F3550C29F8D3641CE4B2032CEC
:10F7B000ECD306499C2002F075FD0548017800292C
:10F7C000FCD000210170BDE8F08100008124002000
:10F7D0002B210020F0B5AE480023021D0178012541
:10F7E000101D4FF0805406290BD11678360708D12A
:10F7F0000678C6F30316032E06D0042E04D0052E79
:10F8000002D0062907D00EE0B4F82463A14FC6F356
:10F8100004263E6002E01678360704D10678C6F367
:10F820000316032E02D0062904D00FE09B4F9A4EF8
:10F830007E670EE01678360708D10678C6F3031601
:10F84000032E06D0042E04D0052E02D0062907D0A0
:10F850000EE0D4F84462924FC6F342363E6002E0B6
:10F860001678360704D10678C6F30316032E02D0A5
:10F87000062906D011E08B4E376827F08077376075
:10F880000EE01678360708D10678C6F30316032E65
:10F8900006D0042E04D0052E02D006290AD011E08D
:10F8A0004FF08046C6F80C31C6F810317C4E361F3A
:10F8B000336002E01678360704D10678C6F30316E3
:10F8C000032E02D0062905D00CE0754F03266437BD
:10F8D0003E600AE01678360704D10678C6F30316B0
:10F8E000032E02D006290DD014E06F4F05263E608E
:10F8F0006D4E783635606C4E083633603F263F1DBE
:10F900003E6002E01678360704D10678C6F3031687
:10F91000052E02D0062957D062E0644E3668644F47
:10F920003E60624E361D36683F1D3E605F4E0836B3
:10F9300036683F1D3E605D4E0C3636683F1D3E60AA
:10F940005A4E103636683F1D3E60584E14363668A3
:10F950003F1D3E60554E18363668554F20373E6085
:10F96000524E1C3636683F1D3E60504E203636687B
:10F970003F1D3E604D4E243636683F1D3E604B4E67
:10F98000283636683F1D3E60484E2C3636683F1D8F
:10F990003E60464E30363668454F40373E60434EF7
:10F9A000343636683F1D3E60404E383636683F1D5F
:10F9B0003E603E4E3C3636683F1D3E603B4E403614
:10F9C00036683F1D3E6002E01678360708D106789B
:10F9D000C6F30316032E06D0042E04D0052E02D043
:10F9E000062907D019E0D4F85812324A01F04F0125
:10F9F000116002E0117809070FD10078C0F30310FD
:10FA0000032803D0042801D0052806D12A4801681C
:10FA1000C90702D06FF00101016022487438016803
:10FA200041F470010160BFF34F8FBFF36F8F4FF050
:10FA30001021D1F80002002803DBD1F804020028CD
:10FA400022DA1E4A15601E480468002CFCD01524DA
:10FA5000C1F800420568002DFCD0C1F804420168DD
:10FA60000029FCD0136001680029FCD0BFF34F8F40
:10FA70000C48F0380168134A01F4E0611143016059
:10FA8000BFF34F8F00BFFDE710490F480860F0BD7E
:10FA9000E00F00F0403501400DF0ADBA00C0074066
:10FAA0003C050040FCED00E010560040040400104E
:10FAB00020C50040E40E00400004004004E5014081
:10FAC00000E401400400FA050090D003C0210020AA
:10FAD0000448017F04480029024901D002F073BDA7
:10FAE00002F0E2BCA02800200020004000B58BB04E
:10FAF0000321082001F00AFF182210496846FFF789
:10FB00009BFB0F4806900F494FF48070CDE9070129
:10FB1000099006230C4A06A9684600F05DFA08B170
:10FB200000F06EF90321082001F0F0FE4CF2503095
:10FB300001F00EFBFFF7D8FD0BB000BDD828020086
:10FB40004325002043260020B12302000149012063
:10FB5000087070472C21002002E008C8121F08C15D
:10FB6000002AFAD170477047002001E001C1121F3E
:10FB7000002AFBD1704700000121202803DA8140D0
:10FB80000548014003E0402802DA2038814009B1ED
:10FB90000120704700207047FC06FFBC2DE9FC47A0
:10FBA000002517880646158090F82D0014468946D2
:10FBB00030B13A462146484600F002FD050009D121
:10FBC000B0784FF00C0A18B32088C846001DB84220
:10FBD00002D95046BDE8FC87684679DF0028F9D194
:10FBE0002088032108F8001020881921401C80B2C9
:10FBF000208008F800102088401C80B2208000EB94
:10FC00000801BDF8000002F056FD2188084420805C
:10FC1000F0780222C8B1218896F9033001F1030C73
:10FC20004846BC45D5D8425421884FF0010C491CA8
:10FC300089B2218000F801C02188491C89B2218045
:10FC400009F801302088401C20807068B8B12188F4
:10FC500090F9003001F1030C4846BC45B9D8425434
:10FC600021880A22491C89B2218042542188491CDA
:10FC700089B2218009F801302088401C2080308919
:10FC800050B1CDE900474B460622022106F108009B
:10FC900002F0AAFD05009DD1308A50B1CDE90047A0
:10FCA0004B460722032106F1100002F09DFD0500DE
:10FCB00090D1308B50B1CDE900474B46152214212D
:10FCC00006F1180002F090FD050083D1306A30B1D2
:10FCD0003B462246494600F0E1FD0500DBD1706A53
:10FCE00030B13B462246494601F054F90500D2D1D5
:10FCF00096F82C0038B13B4622464946304602F081
:10FD000067F80500C7D1307838B13B4622464946EE
:10FD1000304601F071F90500BDD128465AE70000D0
:10FD2000134A0021535C0BB1012203E0491C062950
:10FD3000F8D300220F49012806D0022809D0032851
:10FD40000CD0042812D10DE0487810B10AB101207E
:10FD50007047887810B10AB102207047C87808B19E
:10FD600003207047087908B10420704700207047CD
:10FD7000612100204427002030B5A7B03C2101A814
:10FD8000FFF773FA02208DF8040000248DF8064076
:10FD900006208DF807003C2110A8FFF766FA0D48F1
:10FDA00001251590ADF8505020211FA8FFF75DFAEE
:10FDB0008DF87F504020CDE92304074B1FAA10A9DE
:10FDC00001A8009400F04EFA002801D000F018F8C5
:10FDD00027B030BD302100205D1A0200BFF34F8FE5
:10FDE00005480168054A01F4E06111430160BFF371
:10FDF0004F8F00BFFDE700000CED00E00400FA05A6
:10FE00000EB500210091CDE901106A4644F20100CF
:10FE1000FFF7E4FF0EBD10B58268C368934203D0BC
:10FE200000F07CFE002010BD052010BD29B112B1EC
:10FE3000531E134203D0092070470E207047016003
:10FE4000838000218160C1600846704710B58268D8
:10FE5000C3689A1A83889A4203D800F069FE00208A
:10FE600010BD042010BD0000074B5B6823B12AB110
:10FE700020B10068037C1BB1082070470720704741
:10FE800041744261002070478C2100202DE9F04729
:10FE9000074698461446894690074FF0000526D13C
:10FEA0002CB301F083FE134E06F11000C6F80C804F
:10FEB0000570457080F8029044607560357075700B
:10FEC0001420FFF78BFB07211420FFF7BEFB142043
:10FED000FFF79AFB0848076007211120FFF7B5FBE1
:10FEE0000548001F0068B0600020BDE8F0870720CB
:10FEF000FBE700007C210020081501402DE9FC47AC
:10FF0000DFF87890D9F8043073B368B3052902D2CA
:10FF10000720BDE8FC87436933B3437C012B25D020
:10FF2000002704460025884616468DF8005068468E
:10FF300000F0CAF801A802F03FFCC8B1012101702D
:10FF40000F4944600968C0E90218C0E904769DF8C9
:10FF5000040089F801009DF8000000F0D9F8142091
:10FF6000FFF768FB2846D4E70820D2E70F46D8E71A
:10FF700004259DF8000000F0CBF8F3E78C21002069
:10FF8000041501400649496839B130B1416921B1D0
:10FF900000210174022102F01FB9082070470000FF
:10FFA0008C21002070B50A4E01460A48B578FFF74B
:10FFB00032FF04464DB10020B070711C0122C81DF3
:10FFC00001F0C0FA08B1FFF71BFF204670BD00002A
:10FFD0009C210020E0280020F0B5284E89B01F4663
:10FFE0000D00044672603BD0A888296882B224487C
:10FFF000FFF71CFF002834D1A889A96882B22048E5
:020000040002F8
:100000001030FFF713FF00282BD120221D4968462E
:10001000FFF712F960690690207C00B101208DF88D
:1000200014008DF81C70607C00B10E208DF8150056
:10003000E0680290A06803902068019060680090DA
:100040000E48114A6946083001F048FA002808D1E4
:10005000B0702068401C04D09DF81D0018B106E067
:10006000072009B0F0BD0548083001F0C3FA034984
:100070000122491CC81D01F065FAF2E79C2100200D
:10008000E0280020082902000924020010B50146DA
:100090000B48FFF7DBFE040010D10A4801F0F4FB27
:1000A00060B9084906480839FFF7B5FE30B9054977
:1000B00001220839034801F061FB0446204610BDC7
:1000C000F0280020A421002030B5EFF3108172B693
:1000D0000D4A9468012324B10370002900D162B64F
:1000E00030BD93604FF0E023D3F88051074C25409A
:1000F0001560C3F88041D3F8844154605A17C3F89F
:10010000842100220270E8E700290020FC06FFBCE1
:100110000B498A68002A11D000280FD1EFF3108014
:1001200072B60B684FF0E022C2F800314B68C2F89B
:10013000043100228A60002800D162B670470000B6
:10014000002900202DE9F041064608680C46411CB4
:100150004FF0A0474FF0010506D005FA00F1C7F8AF
:100160000815206801F0EEFB6068411C02D00021F8
:1001700001F0D5FB3079204901EB4010A169007FE7
:1001800000283068C0F8241525D0607D227D3168B4
:100190001043C1F86C05D4E900123068C0F80C15A2
:1001A000C0F8142524E0A068411C02D0002101F011
:1001B000B6FBE068411C05D08540C7F80855E068EB
:1001C00001F0C0FBD4E902123068C0F80825C0F87D
:1001D0001015BDE8F081607D217D32680843C2F8CA
:1001E0006C05D4E900123068C0F81425C0F80C156D
:1001F000207D0128D7D0ECE7A0280020F0B50C46E0
:1002000093B01F210726ADF80010ADF804100027A9
:1002100050B1C17849070DD56A4602A9FFF7BEFC67
:10022000002808D102AD02E00025ADF800706CB1E5
:10023000E07810B1304613B0F0BD01AA0AA92046FB
:10024000FFF7ACFC0028F6D10AAA02E00022ADF8C4
:100250000470BDF80400C3B2BDF80000C1B2284666
:1002600072DFE8E72DE9F0471F46DDF820801346EE
:100270008946040042D0EBB3404D0120002628708F
:10028000EE70202219463E48FEF7D6FFC5E90478F5
:100290004FF6FF702881AE613948AE83AE773C21BE
:1002A0002030FEF7E2FF3648217820300170A17837
:1002B0008170E178C170617841703149D4E90423DB
:1002C000C1E90C23D4E90223C1E90A23D4E90623B6
:1002D000C1E90E23616AE1B100F13C0100F148027D
:1002E00041628A60636A1B880B80616A436A8988FD
:1002F000998000E002E00021436A07E00E20BDE89B
:10030000F087656AAD686D5C5554491C9D888D42C7
:10031000F7D8A16AD9B11A4A9432A2F10C018A60C5
:100320008162A36A9B888B80A16A836A098819808D
:100330000021836A04E0A56AAD686D5C5554491CD0
:100340009D888D42F7D894F82C1080F82C10216AE3
:1003500049B10A490A310162226A52884A80216AF7
:10036000026A09881180616801B141604946BDE8AF
:10037000F04703482030FFF741BF0000482100202C
:100380004427002010B50188144C102918D01129D9
:100390001CD01B2919D1007A002816D1E07805213C
:1003A000401CB0FBF1F201FB120000BF00F018F896
:1003B00000280AD06169002907D0BDE8104008472D
:1003C000C17B012901D18088208110BD002161718C
:1003D000808821898842F8D10120E7E74821002060
:1003E0002DE9F0413D4C804686B0207848B184F834
:1003F000038004A800F0A6FB0498012628B16670CB
:1004000067E0082006B0BDE8F0810025A561344F03
:10041000A583A577787810B1E078012806D0B87860
:1004200058B1E078012801D0022806D1216919B11C
:1004300026710820884700E025714046FFF770FCD0
:10044000E070216939B1032801D0042803D138783C
:1004500008B1607990B1A571009502950195039559
:100460008DF800508DF808501C48E17818300529A7
:1004700025D2DFE801F03008111D2100E571A671D9
:1004800007208847E8E7A67001908DF80060ADF876
:100490000C50ADF80A5014E00221A17001908DF8C3
:1004A0000060B889ADF80C003889ADF80A0008E0A2
:1004B000684601F015FD02E0684601F035FDE07880
:1004C00018B1684673DF00289CD1216909B1A07872
:1004D0008847002096E7A570F7E700004821002034
:1004E0004427002070B5054601461C220F48FEF740
:1004F000A3FE0F4C00262670286830B101686160A9
:100500004068A060201D7ADF02E00948001D7BDF03
:1005100000280AD14FF6FF7060806670BDE8704019
:10052000044A00210448FFF79FBC70BD1828002032
:100530006821002059270200F028020070B51E4CE7
:10054000068800231B49E289102E15D01B4D112E61
:100550001CD0122E29D0502E17D130F8061F9142F0
:1005600013D14189022910D10C3000F0F2F888B182
:10057000BDE8704000F0FEB984884C800469CC600E
:10058000406908614B70002AF2D070BD4FF6FF70D1
:1005900048804B702868FFF7F5FC0028F5D0A1696A
:1005A0000029F2D0BDE8704008478268CA60C06880
:1005B0000861DDE76821002018280020F0280200EB
:1005C0007CB5054608880C460930904201D90C20BC
:1005D0007CBD68466DDF0028FAD121880820685468
:1005E00020881B21401C80B2208029542088401C78
:1005F00080B220802844DDF801100160BDF80510AC
:1006000081802088801D80B220809DF800104908DC
:1006100000D0012129542088401C208000207CBD6E
:1006200010B50446FFF78AFF2146054800F03CF864
:10063000204601F021FA2046BDE81040FFF7A2BE97
:100640003C23002030B5174B0D4604000FCB85B07E
:100650008DE80F0023D015B34FF6FF70A0822868F5
:10066000A0610020A0752146684663DF002814D1F0
:1006700020788DF812000120ADF81000A21C04A90A
:10068000A0DF002809D12946204601F0C6FA00283B
:1006900003D12946204601F02DFE05B030BD0E20C5
:1006A000FBE70000F428020010B5002822D0002942
:1006B00020D00A88102A18D0112A18D0502A19D10F
:1006C00004468A1DC888238A1231984202D1538970
:1006D000022B10D0A38898420CD1A369002B09D01B
:1006E00052892046BDE810401847898801E04FF63E
:1006F000FF71818210BD084600F02BF800B1012087
:10070000A07510BD07B584B068B1828AA2F57F4399
:10071000FF3B0AD0827D42B1BDF81820142A06D9C9
:10072000072007B000BD0E20FBE70820F9E70022F4
:1007300000920192029203928289039106A902918A
:10074000ADF8002001218DF80210808A6946A6DFED
:10075000E7E7007800F001007047000000B513489B
:1007600089B00023006807905022114907A801F0C2
:1007700027FC08B1FFF744FB6A460121002001F085
:1007800009FC08B1FFF73CFB1720ADF810006846E4
:1007900001F0F6FB08B1FFF733FB064801F0E6FB7A
:1007A000002801D0FFF72CFB09B000BDB8280200DB
:1007B00058230020210602000249084490F9300025
:1007C000704700004828002070B5084C050009D08B
:1007D00010342168002907D008682060496828463D
:1007E0008847F6E70834F4E770BD0000342800209D
:1007F0002DE9F05F26484168F1B3DFF898B00E6844
:100800008146DBF8004087688078E11B21F07F4556
:10081000ED1CB0B9DFF880804FF48030C8F8440395
:10082000C8F804031120FEF7D9FE1120FEF7ECFEF4
:100830004FF0010AC8F800A02F2000F0CFFC89F883
:1008400002A0B54200D23546124BE8193C3320F0E5
:100850007F401860DBF800105A46091B21F07F41E9
:10086000001B20F07F40C91C81420FD9106818601E
:100870002F2000F0B3FC00E004E0BDE8F05F1120A1
:10088000FEF7D8BEBDE8F05F01F090B9BDE8F09F7B
:100890007C21002004150140001001402DE9F041A9
:1008A00017880646B81D14460D46984202D90C20FA
:1008B000BDE8F0813188072206290AD34FF4486C3D
:1008C0004FF6FF73614501D9994202D1708806281D
:1008D00001D21046ECE7604501D99842F9D199421E
:1008E00003D0984201D08142F3D80520E8552088F2
:1008F0001221401C80B2208029542088401C80B2E4
:1009000020804119308801F0D6FE2188084480B249
:1009100020804119708801F0CEFE21880844208093
:100920000020C5E7FFF76CBA00B587B01C21684608
:10093000FEF79BFC00204FF42031CDE900014FF47D
:100940007021029103218DF80C10ADF80E008DF886
:10095000100006480590064806906846FFF7C2FD5D
:10096000002801D0FFF74CFA07B000BD591B020068
:1009700025090200F8B5134800F028FA114D0026A9
:10098000114C0C3D30B16169B9B101208DF8000006
:10099000684611E0287820B1616971B18DF8006076
:1009A000F6E7687858B1A168084800220068FFF7A8
:1009B000A5FA10B1A16901B188472E70F8BD616830
:1009C000F2E700007421002018280020F02802001F
:1009D000FCB500238DF8003019468DF804308DF8F1
:1009E00004308DF80030C0220624364D364E1DE00E
:1009F00047789DF800C04FEA4C0C22FA0CFC07EA3D
:100A00000C079DF800C0CCF1000C04EB4C0C27FA4D
:100A10000CF78DF804709DF80470EF5D7754491C55
:100A20009DF80070C9B27F1C8DF800709DF80070B1
:100A3000042FDDD38DF800301DE007789DF800C04D
:100A40004FEA4C0C22FA0CFC07EA0C079DF800C098
:100A5000CCF1000C04EB4C0C27FA0CF78DF8047069
:100A60009DF80470EF5D7754491C9DF80070C9B281
:100A70007F1C8DF800709DF80070042FDDD300BF3F
:100A80008DF800309DF80030042B18D283789DF843
:100A900000707F0022FA07F73B409DF800707F420C
:100AA00004EB4707FB408DF804309DF80430EB5C05
:100AB0007354491C9DF80030C9B25B1CE0E7024842
:100AC000FCBD0000C42802006C240020092801D8C5
:100AD000303000E03730C0B2704700000E4910B52A
:100AE0000A784C780023A24212D0521CD2B20A706B
:100AF000022A00D10B70084A0B78183252F82320D2
:100B000002608868104420F07F408860012010BD9A
:100B10000360002010BD00007C21002082688388D3
:100B20001A4003689A5C0A708168491C81607047AA
:100B3000C26883881A4003689954C168491CC1601F
:100B40007047000020B10349496E016000207047E2
:100B5000032070470C2900200EB500F027F801464D
:100B60009DF8080020F00F00401C20F0F00010302D
:100B70008DF808000B2202A87CDF08B1FFF740F9CE
:100B80000020009001901021ADF80400ADF8001095
:100B90004FF4C8703C21ADF80600ADF8021068466D
:100BA0007ADF002801D0FFF72BF90EBD1CB568468F
:100BB0006DDF184C462020704C2060709DF80300BB
:100BC00000F00F00FFF782FFA0709DF8020000F018
:100BD000F000E0700009FFF779FFE0709DF8020077
:100BE00000F00F00FFF772FF20719DF8010000F088
:100BF000F00060710009FFF769FF60719DF8010066
:100C000000F00F00FFF762FFA0710020E0712046A6
:100C10001CBD0000BC2300202DE9F84300273E4600
:100C20003D463C4601F028F91849804632200870BC
:100C300018F80700072814D2DFE800F004070B0DAE
:100C4000102325000126002501E0002604E00024F1
:100C500007E0002603E001260125F8E7012600252C
:100C600001242B46324639460948009401F028FDFC
:100C70007F1CFFB2032FDBD3BDE8F8430448FEF727
:100C80007DBD002600E001260125E9E7382100208E
:100C90001D2500200020074A014600BF00EB40034D
:100CA000401CD1541344C0B2597099700328F5D335
:100CB000704700002625002010B5072000F038FE00
:100CC0004FF0A0448020C4F80C051C2004F20C5402
:100CD00000F02EFE4FF08050206010BDF8B51C4C87
:100CE0002078002832D0E068002658B100256078CE
:100CF00000282BD1684648DF052805D030B1FFF722
:100D00007FF80AE00125F2E7012606E0009800F0EE
:100D1000E7FA216909B1009888479DB960780028F1
:100D200014D16088ADF800006946A06861DF05282D
:100D300003D020B1FFF764F804E0012502E0D4E914
:100D400002018847002ED2D0002DE6D0F8BD000069
:100D5000AC21002070B50E460446007918494FF4C6
:100D6000A27501EB4010017F2068A1B14FF488719A
:100D700000F055FE4FF49071206800F050FE4FF4E3
:100D80009271206800F04BFE2946206800F047FE73
:100D90000C49206809E04FF48E7100F02FFE2946BF
:100DA000206800F02BFE08492068C0F80413206872
:100DB00000F0B7FA3146BDE8704000F096BA000086
:100DC000A02800201003020080000200054940888E
:100DD0000A88904204D34988884201D8012070478C
:100DE000002070476C2100202DE9F043264CA4F12F
:100DF00010092278D9F8048099F80350404694F8F5
:100E000001C0D9F8086031E002EB42036168521C6E
:100E100001EBC301A378D2B2934200D100220B7838
:100E2000022B02D0032B21D11DE003464F68194647
:100E300003E0B94203D00B46C969B9B1F9E7A9B1DA
:100E40008B4205D1C06918B9104E0125B560002646
:100E50000F68C969D96149B10B683B440B6005E073
:100E60000174C06900E000210028F9D19445CBD17C
:100E7000C9E9010689F80350404502D00120BDE8C8
:100E8000F0830020FBE700008C21002000100140CF
:100E90002DE9F0412A4F0446002607F11005D7F846
:100EA00004803EE002D02046E4691DE028786968AD
:100EB00000EB4002401CC0B201EBC2012870AA78CE
:100EC000904200D12E700A784868012A2BD1027C0A
:100ED0004ABB8A684260CA6882600A69C26049691E
:100EE0008161F97801B146604368BA68DFF854C09F
:100EF000991A21F07F41614502D28268114406E0CF
:100F0000D11A826821F07F418A4202D9511A0160C8
:100F100000E006604660012186600174C66101F050
:100F20003DF9002CBED1287869788842BED1796815
:100F3000414502D00120BDE8F0810020FBE7000020
:100F40007C210020FFFF7F000023114A0521184665
:100F5000FEF79CFF08B1FEF753FFFEF7C7FDFFF752
:100F6000ABFEFEF7FFF9FEF70BFBFEF7C3FA03201B
:100F7000FFF736FA08B1FEF743FF42F2107400BFE4
:100F8000FEF7CAFAFEF78EF9204600F09BF8F7E765
:100F9000C421002070B5144682880E46054620887C
:100FA000111D0144921C994201D8FE2A01D90C203E
:100FB00070BD521C32542088FF21401C80B220801A
:100FC00031542088401C80B220808119288801F08B
:100FD00072FB2188084480B22080AA8842B1A968A7
:100FE00041B13044FEF728F92088A98808442080C0
:100FF000002070BD072070BDF8B50E46017814467C
:101000000546012901D1687830B12088821C9A42B6
:101010002DD8012902D006E00720F8BD69780144E7
:10102000891C994223D8181A801E87B2ADF8007027
:101030002188B01C084469467DDF0028EDD128785E
:10104000022805D1BDF80010B94201D809210AE0F3
:101050000821012805D16878B84202D8ADF800000F
:1010600001E0ADF80070BDF80000FE2801D90C20A9
:10107000F8BD2288401CB0542088401C80B22080DB
:1010800031542088401C2080BDF800100844208086
:101090000020F8BDC20800F007030120895C9840D9
:1010A0000840704700F180400068002800D001200F
:1010B000704708B500F18040002101600068009091
:1010C00008BD000000283ED01F49204A096800BF23
:1010D00000BF00BF00BF00BF00BF00BF00BF914204
:1010E0002FD000BF00BF00BF00BF00BF00BF00BFC8
:1010F00000BF00BF00BF00BF00BF00BF00BF00BFF8
:1011000000BF00BF00BF00BF00BF00BF00BF00BFE7
:1011100000BF00BF00BF00BF00BF00BF00BF00BFD7
:1011200000BF00BF00BF00BF00BF00BF00BF00BFC7
:1011300000BF00BF00BF00BF00BF00BF00BF00BFB7
:1011400000BF0138C3D17047C02100200024F40043
:1011500000283ED01F49204A096800BF00BF00BFD9
:1011600000BF00BF00BF00BF00BF91422FD000BF33
:1011700000BF00BF00BF00BF00BF00BF00BF00BF77
:1011800000BF00BF00BF00BF00BF00BF00BF00BF67
:1011900000BF00BF00BF00BF00BF00BF00BF00BF57
:1011A00000BF00BF00BF00BF00BF00BF00BF00BF47
:1011B00000BF00BF00BF00BF00BF00BF00BF00BF37
:1011C00000BF00BF00BF00BF00BF00BF00BF0138AD
:1011D000C3D17047C02100200024F40000283ED075
:1011E0001F49204A096800BF00BF00BF00BF00BF01
:1011F00000BF00BF00BF91422FD000BF00BF00BFA3
:1012000000BF00BF00BF00BF00BF00BF00BF00BFE6
:1012100000BF00BF00BF00BF00BF00BF00BF00BFD6
:1012200000BF00BF00BF00BF00BF00BF00BF00BFC6
:1012300000BF00BF00BF00BF00BF00BF00BF00BFB6
:1012400000BF00BF00BF00BF00BF00BF00BF00BFA6
:1012500000BF00BF00BF00BF00BF0138C3D170474F
:10126000C02100200024F40070B50F4C0025207828
:1012700008B1852516E00021A16061602161E1606F
:101280004FF0E020D0F80001012610F0010F03D14B
:101290000721002000F029F800F0C4FE08B9034837
:1012A00006602670284670BD3428002018050040CE
:1012B00038B500208DF800006846FEF705FF074CA2
:1012C000207808B9FFF7D0FFE068401CE0600120FB
:1012D000A0709DF80000FEF71BFF38BD34280020E9
:1012E000002801D1FFF770BA70474907090E00289E
:1012F00006DA00F00F0202F1E02282F8141D03E08A
:1013000000F1E02282F8001400F01F020121914058
:101310004009800000F1E020C0F88012C0F8001100
:101320007047000B40B270470121B1EB507F01D1F3
:1013300001207047002070470121B1EB507F01D19F
:1013400001207047002070472DE9FC5F0C46417971
:10135000DFF80CA180460AEB4117387E10B1082057
:10136000BDE8FC9F3A60207B01254FF0A046012894
:1013700005D8217805FA01F0C6F80C0502E02078BE
:1013800000F005FB2178A946890001F1A041C1F8D0
:1013900000576578FF2D07D009FA05F0C6F80C054F
:1013A000284600F0D9FA01E04FF0FF35A0784FF061
:1013B000000BFF280AD0002206465B46CDF800B09D
:1013C0001146CDF804B000F08FFA01E04FF0FF367F
:1013D000E078FF2804D000F0DAFAE07800F0BCFAF8
:1013E00098F80520E1780AEB42108176D8F80000E1
:1013F0002178C0F80815C0F80C55C0F81065A16830
:10140000C0F82415227B617B01B10121012A04D09F
:10141000022A05D0032A08D105E041F0020104E0C8
:1014200041F0040101E041F00601C0F85415617972
:10143000C0F8C015396811B14021C0F80413072164
:10144000C0F80015386820B1217998F90400FFF739
:101450004CFF584687F819B087F8189080E70000CD
:10146000C02800201FB5069C00918DF8042002932F
:101470008DF80C400022694600F002F804B010BD5F
:10148000F0B413460D464179134A02EB41114A7EEE
:1014900012B1F0BC112070470C6801221CB113F08E
:1014A000140F00D14A7695E8D010083181E8D010A9
:1014B00011F8154F24F0030401F81D498C7EFF2C10
:1014C00004D04FF0A046A240C6F80C2500682A467A
:1014D000F0BC00F0B3BD0000C02800202DE9F041B1
:1014E00005460079164F904607EB40140E46E07E05
:1014F00010B10820BDE8F081707F20772846FEF704
:1015000021FE5FEA080060603169216003D0317F0D
:101510002846FFF71FFC287907EB4010007F0028C2
:10152000286801D0082100E00421C0F8001500203F
:10153000E0752076A0750121E176A076DAE700005B
:10154000A02800202DE9F04105460079284E90465C
:1015500006EB40140F46207F18B10846FFF7E4FE63
:1015600080B1626800234FF404704FF4017172B1CE
:101570002A7906EB4212127F002A2A6805D0C2F8A7
:10158000080304E01020BDE8F081C2F80813E27DF2
:10159000B2B1227E7AB162685AB12A7906EB421260
:1015A000127F1AB12968C1F8040302E02868C0F864
:1015B00004131120E7E72761012384F8188005E070
:1015C00084F817800020E76060762076287942460C
:1015D00006EB40103946007F0028284603D0BDE8BE
:1015E000F04100F073B8BDE8F04100F01BB8000016
:1015F000A028002070B504460079094D05EB401085
:10160000017F00290AD1807E002807D1204600F002
:101610007EFB2179012005EB4111887670BD000029
:10162000A02800202DE9F05F04460079264901EB4F
:101630004015A87E184302D1204600F068FB686878
:101640000028206806D04FF40171C0F80413002070
:10165000BDE8F09F4FF4A276314600F0CFF9B146D5
:101660004FF4927A4FF4847B5146206800F0C1F920
:1016700006465946206800F0BCF980464946206875
:1016800000F0B7F9074648EA07003043ECD056EAC5
:10169000070007D12946206800F0A6FAE87D697E98
:1016A0008842E1D80020E8750EB10320D0E70FB1E1
:1016B0000F20CDE7A97E01200029216801D0086014
:1016C000C5E74860C3E70000A02800202DE9F05FCF
:1016D000894604464FF488759A469046002600686D
:1016E000294600F09CF94FF4A2773946206800F0B3
:1016F00096F92068C0F83495C0F838852068BAF1AA
:10170000000F14D0D0F8001241F02001C0F80012F0
:101710002179DFF8648008EB4110406850B12068FF
:101720004FF40471C0F804133046BDE8F09F012166
:101730000160EDE7AA46B9464FF4927B5146206816
:1017400000F068F907464946206800F063F905464D
:101750005946206800F05EF9014647EA0500084353
:10176000ECD02379002208EB4310C27501B10326A7
:10177000002DD9D00F26D7E7A02800202DE9F0476B
:10178000054600793F4E904606EB40140F46207FF9
:1017900018B10846FFF7C8FD30B1284600F074F8CC
:1017A00020B11120BDE8F0871020FBE784F81680F7
:1017B000A7600027A78228794FF0010806EB4014A4
:1017C0003E46207F0028286825D04FF4907949466E
:1017D00000F025F94FF4AC7A5146286800F01FF963
:1017E0002868A17DA268C0F84425C0F8481528687B
:1017F000C0F808806068F0B94946286800F00AF926
:1018000080465146286800F005F958EA0001F3D0F7
:1018100058BBA7750FE04FF48E7A514600F0EEF8F2
:101820002868C0F808802146286800F053FD6168E8
:101830004FF4807089B13046B4E75146286800F013
:10184000D8F810B9A08A4845F7D1A08A484505D0F4
:101850002146286800F03EFD00E08146A08AA17D77
:101860008842EAD3A08A484501D10F26D1E75146E4
:10187000286800F0BEF80028F9D02868C0F80C806D
:10188000C7E70000A02800200079044901EB4010C0
:10189000807D002800D0012070470000A028002093
:1018A00070B541EA4201DDE904564FF0A04441EA37
:1018B000830141EA052104EB800041EA0641C0F8BA
:1018C000001770BD70B541EA4201DDE904564FF0E2
:1018D000A04441EA830141EA052104EB800041EA8A
:1018E0000641C0F8001770BD70B541EA4201DDE95C
:1018F00004564FF0A04441EA830141EA052104EB7C
:10190000800041EA0641C0F8001770BD1CB50022F6
:101910000B46009211460192FFF7C2FF1CBD1CB599
:1019200000220B46009211460192FFF7CBFF1CBD2F
:101930001CB5002100910B46012201911146FFF7D1
:10194000AFFF1CBD1CB5002100910B460122019187
:101950001146FFF7B7FF1CBD1CB5002100910B46D7
:10196000012201911146FFF7BFFF1CBD4FF0A042BD
:1019700002EB8000D0F8002722F44032C0F80027A4
:10198000D0F8002742EA0141C0F8001770474FF035
:10199000A04201218140C2F80815704718B5084BD4
:1019A0006C4601441B68009306E000BF54F82030E9
:1019B000D3F81035401C08C28142F7D818BD00008A
:1019C00004290200034908B50844002101600068A9
:1019D000009008BD0060004002494058012800D036
:1019E00000207047006000404058002800D00120CF
:1019F00070474058002800D00120704708B50022E9
:101A000042504058009008BDD0F80403084000D070
:101A1000012070474058002800D00120704708B5C9
:101A2000002242504058009008BD000070B50A489E
:101A3000084C0378E25403785B1C0370002306E033
:101A4000CD5C0678A55505786D1C05705B1C93422E
:101A5000F6D370BD3C220020282100204FF0A04189
:101A600028B1032802D18020C1F8080570478020E2
:101A7000C1F80C057047000070B535490446008870
:101A800001250E8888B03B2831D00EDC022832D0E8
:101A9000304A102815D0112816D0132819D1002348
:101AA0001A46852130467FDF1AE0512827D0522878
:101AB00011D0552848D056280BD1A088132176DFA5
:101AC0000EE01570A08803E0002010704FF6FF7044
:101AD000088008B070BD00231A4619463046A9DFB9
:101AE0000028F6D008B0BDE87040FEF789B9A0889C
:101AF000132176DFF4E7A088002167DFF0E71022EA
:101B0000A11D04A8FDF798FB9DF810100029E0D056
:101B10009DF81800042803D0062801D00528D8D144
:101B200002290DD08DF800504FF4C170ADF80400BB
:101B3000A0886946A8DF0028CBD0FEF761F9C8E786
:101B400002208DF80000EFE7A0881721ADDFC7E77E
:101B50002E2100202A2100200078002807D10448E7
:101B60003B21008876DF002801D0FEF749B9704795
:101B70002E21002030B50022064D074B07E01C78CF
:101B80002C5D84541C78641C1C70521CD2B28A4296
:101B9000F5D330BD3C2200202921002000210A4637
:101BA0004254491CC9B24929FAD3704770B501267D
:101BB00070044FF0E0210025C1F88001084C40106E
:101BC000C4F84803C4F8080366602F20FFF706FB3B
:101BD000A660044C2F20A560FFF700FBA57070BD28
:101BE000001001407C21002070B50546C87D0C46E0
:101BF00000284FF4847128460AD0FFF7FFFED5F87D
:101C00001805627EE1688854607E401C607670BD75
:101C1000FFF7F4FED5F8180570BD30B58FB000247D
:101C2000054607949DF81C001C2120F00F00401C65
:101C300020F0F00010308DF81C009DF81D0020F001
:101C40000F00401C20F0F00010308DF81D009DF8B2
:101C50001E0020F00600801C8DF81E006846FDF76F
:101C600004FB9DF80000019440F010008DF8000086
:101C700007A8CDE904400394069428788DF83A002B
:101C80000320ADF838000D949DF83400142120F0A5
:101C90000F00401C20F0F00010308DF834009DF84B
:101CA000350020F00F00401C20F0F00010308DF8BF
:101CB00035009DF8360020F00600801C20F018004A
:101CC00040F001008DF8360008A8FDF7CEFA0EA806
:101CD00008900DA809900120ADF828001420ADF857
:101CE0002A40ADF82C00688805F10C0308AA694663
:101CF000A2DF0FB030BD1FB501238DF800308DF885
:101D000008100192D0E90012684690471FBD10B537
:101D1000044600684FF49271FFF770FE4FF484712F
:101D20002068FFF76BFE20680121016010BD0000F4
:101D300010B50446FDF720FF40B1002C09DA04F08D
:101D40000F0000F1E02090F8140D06E042F20100CF
:101D500010BD04F1E02090F800044109082914D2D4
:101D600099B1012911D004290FD005290DD00B48B4
:101D70000122816861B1610950F8213004F01F042B
:101D8000A240134340F8213005E042F2020010BDAA
:101D90002046FDF744FC002010BD00000029002073
:101DA00000210A480A464254491CC9B23C29FAD3C8
:101DB0003C2188234354491CC9B26029FAD3242109
:101DC0004254491CC9B23C29FAD3704781240020EF
:101DD0002DE9F0410746806A14468846C8B30025BD
:101DE00031E000BFB96A05EB450001EB8006B08821
:101DF000801CFE2802D90C20BDE8F0812288401CFE
:101E000008F8020020881622401C80B2208008F8C2
:101E100000202088401C80B2208000EB0801308820
:101E200000F049FC2188084480B22080B28842B189
:101E3000B16871B14044FDF7FFF92088B1880844CA
:101E400020806D1CEDB297F82C00A842CAD8002063
:101E5000D2E7FFE70720CFE708B5054800906946BD
:101E60000448FEF7EFFB002801D0FDF7C9FF08BDCD
:101E70002D1A02003C2300203EB50020009001A84E
:101E80006DDF9DF807000007000B00909DF806002D
:101E9000009941EA002000909DF805000099084350
:101EA0000090C0B200F00F0101EB10110720B1FB50
:101EB000F0F400FB1414009A0849C2F30523C2F39E
:101EC00087320C70B3FBF0F400FB14334B70B2FBA1
:101ED000F0F300FB1320887008463EBD3D21002032
:101EE00010B50F490F4C0A8A42818A8A828109788B
:101EF00091B1617981B9E17971B102210172084929
:101F000004202031C870064800212030FEF776F901
:101F1000002804D1052000E00320A070002010BD9F
:101F2000442700204821002010B50E490E4C0A8B92
:101F300042818A8B82810A78042182B1627972B9E6
:101F4000E27962B10222027206482030C17000219B
:101F5000FEF754F9002804D10620A07000E0A1701B
:101F6000002010BD442700204821002018B103495B
:101F7000C860002070470E2070470000AC21002090
:101F80001CB5034901910091694660DF1CBD00004A
:101F90002821002070B50E46054614461C21104627
:101FA000FDF763F9012020800021A16121752672CF
:101FB000657205B1A072002070BDFDF70FBF000073
:101FC0002DE9F041074619B188074FF0000402D00F
:101FD0000720BDE8F081114D4FF0E0200126A960F7
:101FE0006A806B60D0F8000110F0010F03D0344616
:101FF0000020FDF7FEFA0A49384610DF070005D039
:1020000014B10020FDF70BFB3846E2E72E70FFF716
:102010004FF9BDE8F0411620FFF78ABEAC21002041
:10202000BB1F02000148007870470000AC2100206F
:1020300001490120087070472B2100202DE9F84349
:10204000044610681E4615460F464FF0000810B1B2
:10205000FFF772F9F8B1A86810B1FFF76DF9D0B1C8
:1020600028792968C4F84415C4F84805287BA9686C
:10207000C4F83415C4F838054FF48C754046C4F8DC
:102080001881D4F818110091F2074FF0010107D020
:10209000C4F8501506E087F819801020BDE8F883D1
:1020A000C4F85005B20702D5C4F8401501E0C4F8E1
:1020B0004005300700D42161386848B146F38000FC
:1020C000401C4FF040000FD0C4F804030020E5E7A7
:1020D00029462046FFF788FC0028F9D0B87EFF2863
:1020E000F4D0FFF754FCF1E7C4F80803EEE7000072
:1020F0000348002242F266610068FDF7FFBE00005F
:10210000C028020001480068FDF73CBFC02802005B
:102110002DE9F84F204C00256846D4E901B6FEF7BA
:10212000DDFC8046FEF760FE0746A946B8F1000FC9
:1021300025D00023009ACC46606819E00768014664
:10214000974202D9BA1A026014E0C1F800C0D1F86F
:102150000C80D21BC8693B448A46B8F1000F07D0F7
:10216000F71827F07F47C1E90178CAF81C500D46DF
:102170000028E3D160602846FEF78AFE04E0284686
:10218000FEF786FE00B917B15846FEF731FB84F81A
:102190000390BDE8F88F00007C2100200D4B10B5A6
:1021A000596831B102680C68A24204D8A21A0A60C8
:1021B000C161586010BD0B4603E00B46C969121B94
:1021C00021B10C689442F8D3A41A0C600260C1617A
:1021D000D86110BD7C2100207CB5064600240D4648
:1021E0008DF800406846FDF76FFF01A800F0E4FAA3
:1021F00070B10570094946609DF8040048709DF86B
:102200000000FDF785FF1420FDF714FA20467CBD81
:1022100004249DF80000FDF77BFFF7E78C210020E8
:102220002DE9F0411D4D6C68002C35D01C4800276D
:102230000068A968B846401A20F07F462068B0427E
:1022400015D82246361A0744E469107C68B182F832
:102250001080EB6833B1D2E90501984728B1FDF74A
:10226000CFFD02E0D2E905108847002CE6D129789D
:102270006878814206D1401CC0B26870022801D142
:1022800085F8018005486978183040F82170BDE86C
:10229000F0411420FDF7CEB9BDE8F0817C2100208B
:1022A0000415014038B50D46074904460020087062
:1022B00021460648FCF7D9FF044B2246294604482C
:1022C0000094FFF7CFF838BD2B2100202F250020E8
:1022D0004021002070B50C4605464FF48E71FFF783
:1022E0008DFBA18AA068415CA08A401CA082C5F831
:1022F0001C1570BD30B58FB005461C216846FCF733
:10230000B4FF00249DF80000019440F00C008DF80B
:102310000000039404940594069428788DF8360000
:102320000220ADF834000C949DF83000142120F008
:102330000F00401C20F0F00010308DF830009DF8A8
:10234000310020F00F00401C20F0F00010308DF81C
:1023500031009DF8320020F00600801C20F01800AB
:1023600040F001008DF8320007A8FCF77EFF0DA8B1
:1023700007900CA808900120ADF824001420ADF8B7
:102380002640ADF8280068882B1D07AA6946A2DF01
:102390000FB030BD1FB500228DF800208DF8081059
:1023A000816801918275D0E90012684690471FBD8F
:1023B00070B5017841B1012901D002291BD14068D3
:1023C000BDE87040FDF71CBD0C4C0B48217808445B
:1023D000FDF7E8FD2078401CC2B2094822700025B4
:1023E000017809B1057005E0142A04D102490548B5
:1023F000FEF788F9257070BDA82300203421002045
:102400002C2100203C2300207CB50178244D81B391
:1024100001290BD002292BD18DF80010C068691C4E
:1024200001900122C81DFFF78DF82EE04068017869
:102430001C48FDF70BFD1B4C012618B18DF8006000
:10244000019006E0A068E168814205D000208DF887
:102450000000696868468847A068E168081AA18892
:10246000884207D80E490122491CC81DFFF76AF8A7
:102470007CBD01E0AE70FBE70A4809491030FDF76A
:10248000CAFC30B103208DF80000696868468847AF
:10249000EEE70349012201F10800FFF76FF9E7E7D2
:1024A0009C210020E02800202DE9FF470C4605462E
:1024B0004FF40071FFF7A8FA01274FF401780026C6
:1024C00018B34FF4927949462846FFF792FAE0B1E3
:1024D00049462846FFF792FAC5F80883A07E00B95E
:1024E0006F6002208DF80000D5F88004C5F88004E4
:1024F0000390E07D8DF80800E0680190E67526768F
:10250000D4E900126846904727E004212846FFF7E7
:102510007BFA10B34FF484712846FFF76AFAE0B1F2
:1025200021462846FFF760FBE07D617E884214D19A
:10253000207E38B1617EE268E0752069E060267631
:10254000667607E0A07E00B96F60C5F80883E6757F
:10255000617EE2682046FFF7CEFB4FF48E7841465D
:102560002846FFF746FA88B1A08AA17D884204D2A6
:1025700021462846FFF7AEFE08E041462846FFF711
:102580003DFAA17D11B12046FFF704FF4FF4A27878
:1025900041462846FFF72DFA002812D0414628462A
:1025A000FFF72CFAA07E00B12F60E07D002808D054
:1025B000E675617EE26804B02046BDE8F047FFF7AB
:1025C0009ABBBDE8FF872DE9FF410C464FF4927797
:1025D00005463946FFF71EFA0026C0B1394628469F
:1025E000FFF71DFA02208DF80000D5F88004C5F829
:1025F00080040390D5F83C058DF80800E068019050
:10260000E6752676D4E900126846904724E04FF438
:10261000887739462846FFF7FDF9E8B1394628465C
:10262000FFF7FDF9D5F83C05C1B2E07D884213D132
:10263000207E60B1E268D5F8000220F02000C5F8E5
:102640000002207EE0752069E060267601E0E675F4
:10265000E2682046FFF74FFB4FF4A2773946284641
:10266000FFF7D8F968B139462846FFF7D8F9E07D79
:1026700038B1E675D5F83C05E268C1B22046FFF7EF
:102680003AFB4FF4907631462846FFF7C3F900280D
:102690000FD031462846FFF7C2F9A07D002808D0A8
:1026A000D5F84C0504B0C1B22046BDE8F041FFF7B3
:1026B00071BEBDE8FF810870000A487002207047B3
:1026C000F0B50E4C0025059F01EB4106012A0BD009
:1026D00000F8065001EB41010844012B07D045707A
:1026E000012F07D08570F0BD22788255F2E721785E
:1026F0004170F5E721788170F0BD0000382100209D
:1027000010B5FAB1012A0DD0022A12D0032A08D13D
:10271000012284188B5C521CD2B284F82430132A14
:10272000F7D310BD8B5C8354521CD2B2132AF9D359
:1027300010BD012284188B5C521CD2B2A374132AE0
:10274000F8D310BD012284188B5C521CD2B284F8DD
:102750003630132AF7D310BD38B515494888A0F58F
:102760007F42FF3A23D04A78124C521CD2B24A70B0
:10277000237B93420AD3091D75DF002817D0A16976
:10278000002914D001B0BDE83040084700254D7045
:10279000217C29B13B2176DF10B1A16901B18847C5
:1027A0006169002903D08DF800506846884738BD1C
:1027B00068210020182800200A4A10B55378947820
:1027C000591CC9B28C4200D1002114788C4201D12D
:1027D000002010BD0170506803EB430100EBC10005
:1027E00010BD00008C2100202DE9FC411646DDE9DA
:1027F0000854CDE900541F468046022200F00CF830
:10280000002807D1CDE900543B461022314640460E
:1028100000F002F8BDE8FC812DE9FC5F0026DDE94F
:102820000C4B994692468E4680462788354630E0C6
:10283000D8F80400002200EB85006946006801908A
:1028400001A865DF002830D19DF8000050451FD158
:102850000EB1002100E002212288084411185945D8
:1028600022D846B9521C90B2208009F800E0208896
:10287000401C20800126218801A801EB090269463D
:1028800065DF002811D120889DF8001008442080C1
:102890006D1CB8F80000A842CADC56B12088C01BE5
:1028A000401E80B2FF2802D90C20BDE8FC9F09F829
:1028B00007000020F9E70000010000072C24002099
:1028C0004C240020888EE8EEFFFFFFFF07FF00008A
:1028D00000000040000000000800000006000000AA
:1028E000FF000000FF0000000000000000E0D70132
:1028F000F82700209ECADC240EE5A9E093F3A3B5D7
:102900000000406E00000050FFFFFFFFFFFFFFFFD1
:10291000FFFFFFFFFFFFFFFF0000000000000000BF
:102920000000D601070100004829020028210020EC
:102930009C00000058FB0100E4290200C421002093
:10294000B427000068FB0100000000010000FFFF49
:102950000100020000000000640000000000000010
:1029600000300040030001000000000000000000F3
:102970000000000000000000000000000000000057
:102980000000000000000000000000000000000047
:102990000000000000000000000000000000000037
:1029A0000000000000000000000000000000000027
:1029B0000000000000000000000000000000000017
:1029C00000000000002000400000000000000000A7
:1029D00000000000000000000000000000000000F7
:0429E0000090D00390
:040000050001F20103
:00000001FF
